{
  "_format": "hh-sol-artifact-1",
  "contractName": "BuyMeACoffee",
  "sourceName": "contracts/BuyMeACoffee.sol",
  "abi": [
    {
      "inputs": [],
      "stateMutability": "nonpayable",
      "type": "constructor"
    },
    {
      "anonymous": false,
      "inputs": [
        {
          "indexed": true,
          "internalType": "address",
          "name": "from",
          "type": "address"
        },
        {
          "indexed": false,
          "internalType": "uint256",
          "name": "timestamp",
          "type": "uint256"
        },
        {
          "indexed": false,
          "internalType": "string",
          "name": "name",
          "type": "string"
        },
        {
          "indexed": false,
          "internalType": "string",
          "name": "message",
          "type": "string"
        }
      ],
      "name": "NewMemo",
      "type": "event"
    },
    {
      "anonymous": false,
      "inputs": [
        {
          "indexed": true,
          "internalType": "address",
          "name": "previousOwner",
          "type": "address"
        },
        {
          "indexed": true,
          "internalType": "address",
          "name": "newOwner",
          "type": "address"
        }
      ],
      "name": "OwnershipTransferred",
      "type": "event"
    },
    {
      "inputs": [
        {
          "internalType": "string",
          "name": "_name",
          "type": "string"
        },
        {
          "internalType": "string",
          "name": "_message",
          "type": "string"
        }
      ],
      "name": "buyACoffee",
      "outputs": [],
      "stateMutability": "payable",
      "type": "function"
    },
    {
      "inputs": [],
      "name": "getMemos",
      "outputs": [
        {
          "components": [
            {
              "internalType": "address",
              "name": "from",
              "type": "address"
            },
            {
              "internalType": "uint256",
              "name": "timestamp",
              "type": "uint256"
            },
            {
              "internalType": "string",
              "name": "name",
              "type": "string"
            },
            {
              "internalType": "string",
              "name": "message",
              "type": "string"
            }
          ],
          "internalType": "struct BuyMeACoffee.Memo[]",
          "name": "",
          "type": "tuple[]"
        }
      ],
      "stateMutability": "view",
      "type": "function"
    },
    {
      "inputs": [],
      "name": "owner",
      "outputs": [
        {
          "internalType": "address",
          "name": "",
          "type": "address"
        }
      ],
      "stateMutability": "view",
      "type": "function"
    },
    {
      "inputs": [],
      "name": "renounceOwnership",
      "outputs": [],
      "stateMutability": "nonpayable",
      "type": "function"
    },
    {
      "inputs": [
        {
          "internalType": "address",
          "name": "newOwner",
          "type": "address"
        }
      ],
      "name": "transferOwnership",
      "outputs": [],
      "stateMutability": "nonpayable",
      "type": "function"
    },
    {
      "inputs": [
        {
          "internalType": "address",
          "name": "_addr",
          "type": "address"
        }
      ],
      "name": "withdraw",
      "outputs": [],
      "stateMutability": "nonpayable",
      "type": "function"
    }
  ],
  "bytecode": "0x608060405234801561001057600080fd5b5061002d61002261003260201b60201c565b61003a60201b60201c565b6100fe565b600033905090565b60008060009054906101000a900473ffffffffffffffffffffffffffffffffffffffff169050816000806101000a81548173ffffffffffffffffffffffffffffffffffffffff021916908373ffffffffffffffffffffffffffffffffffffffff1602179055508173ffffffffffffffffffffffffffffffffffffffff168173ffffffffffffffffffffffffffffffffffffffff167f8be0079c531659141344cd1fd0a4f28419497f9722a3daafe3b4186f6b6457e060405160405180910390a35050565b610e9e8061010d6000396000f3fe6080604052600436106100555760003560e01c806351cff8d91461005a578063715018a614610083578063865c51721461009a5780638da5cb5b146100c5578063e810d34e146100f0578063f2fde38b1461010c575b600080fd5b34801561006657600080fd5b50610081600480360381019061007c9190610823565b610135565b005b34801561008f57600080fd5b5061009861018d565b005b3480156100a657600080fd5b506100af6101a1565b6040516100bc9190610add565b60405180910390f35b3480156100d157600080fd5b506100da610384565b6040516100e79190610ac2565b60405180910390f35b61010a6004803603810190610105919061084c565b6103ad565b005b34801561011857600080fd5b50610133600480360381019061012e9190610823565b610535565b005b61013d6105b9565b60004790508173ffffffffffffffffffffffffffffffffffffffff166108fc829081150290604051600060405180830381858888f19350505050158015610188573d6000803e3d6000fd5b505050565b6101956105b9565b61019f6000610637565b565b60606001805480602002602001604051908101604052809291908181526020016000905b8282101561037b57838290600052602060002090600402016040518060800160405290816000820160009054906101000a900473ffffffffffffffffffffffffffffffffffffffff1673ffffffffffffffffffffffffffffffffffffffff1673ffffffffffffffffffffffffffffffffffffffff1681526020016001820154815260200160028201805461025890610cde565b80601f016020809104026020016040519081016040528092919081815260200182805461028490610cde565b80156102d15780601f106102a6576101008083540402835291602001916102d1565b820191906000526020600020905b8154815290600101906020018083116102b457829003601f168201915b505050505081526020016003820180546102ea90610cde565b80601f016020809104026020016040519081016040528092919081815260200182805461031690610cde565b80156103635780601f1061033857610100808354040283529160200191610363565b820191906000526020600020905b81548152906001019060200180831161034657829003601f168201915b505050505081525050815260200190600101906101c5565b50505050905090565b60008060009054906101000a900473ffffffffffffffffffffffffffffffffffffffff16905090565b600034116103f0576040517f08c379a00000000000000000000000000000000000000000000000000000000081526004016103e790610b1f565b60405180910390fd5b600160405180608001604052803373ffffffffffffffffffffffffffffffffffffffff16815260200142815260200184815260200183815250908060018154018082558091505060019003906000526020600020906004020160009091909190915060008201518160000160006101000a81548173ffffffffffffffffffffffffffffffffffffffff021916908373ffffffffffffffffffffffffffffffffffffffff1602179055506020820151816001015560408201518160020190805190602001906104bf929190610703565b5060608201518160030190805190602001906104dc929190610703565b5050503373ffffffffffffffffffffffffffffffffffffffff167fc56140e05f516509ae28110e0f72e17558a7561630dad2647c3ae87d986e365c42848460405161052993929190610b5f565b60405180910390a25050565b61053d6105b9565b600073ffffffffffffffffffffffffffffffffffffffff168173ffffffffffffffffffffffffffffffffffffffff1614156105ad576040517f08c379a00000000000000000000000000000000000000000000000000000000081526004016105a490610aff565b60405180910390fd5b6105b681610637565b50565b6105c16106fb565b73ffffffffffffffffffffffffffffffffffffffff166105df610384565b73ffffffffffffffffffffffffffffffffffffffff1614610635576040517f08c379a000000000000000000000000000000000000000000000000000000000815260040161062c90610b3f565b60405180910390fd5b565b60008060009054906101000a900473ffffffffffffffffffffffffffffffffffffffff169050816000806101000a81548173ffffffffffffffffffffffffffffffffffffffff021916908373ffffffffffffffffffffffffffffffffffffffff1602179055508173ffffffffffffffffffffffffffffffffffffffff168173ffffffffffffffffffffffffffffffffffffffff167f8be0079c531659141344cd1fd0a4f28419497f9722a3daafe3b4186f6b6457e060405160405180910390a35050565b600033905090565b82805461070f90610cde565b90600052602060002090601f0160209004810192826107315760008555610778565b82601f1061074a57805160ff1916838001178555610778565b82800160010185558215610778579182015b8281111561077757825182559160200191906001019061075c565b5b5090506107859190610789565b5090565b5b808211156107a257600081600090555060010161078a565b5090565b60006107b96107b484610bc9565b610ba4565b9050828152602081018484840111156107d157600080fd5b6107dc848285610c9c565b509392505050565b6000813590506107f381610e51565b92915050565b600082601f83011261080a57600080fd5b813561081a8482602086016107a6565b91505092915050565b60006020828403121561083557600080fd5b6000610843848285016107e4565b91505092915050565b6000806040838503121561085f57600080fd5b600083013567ffffffffffffffff81111561087957600080fd5b610885858286016107f9565b925050602083013567ffffffffffffffff8111156108a257600080fd5b6108ae858286016107f9565b9150509250929050565b60006108c48383610a3a565b905092915050565b6108d581610c60565b82525050565b6108e481610c60565b82525050565b60006108f582610c0a565b6108ff8185610c2d565b93508360208202850161091185610bfa565b8060005b8581101561094d578484038952815161092e85826108b8565b945061093983610c20565b925060208a01995050600181019050610915565b50829750879550505050505092915050565b600061096a82610c15565b6109748185610c3e565b9350610984818560208601610cab565b61098d81610d9f565b840191505092915050565b60006109a382610c15565b6109ad8185610c4f565b93506109bd818560208601610cab565b6109c681610d9f565b840191505092915050565b60006109de602683610c4f565b91506109e982610db0565b604082019050919050565b6000610a01601f83610c4f565b9150610a0c82610dff565b602082019050919050565b6000610a24602083610c4f565b9150610a2f82610e28565b602082019050919050565b6000608083016000830151610a5260008601826108cc565b506020830151610a656020860182610aa4565b5060408301518482036040860152610a7d828261095f565b91505060608301518482036060860152610a97828261095f565b9150508091505092915050565b610aad81610c92565b82525050565b610abc81610c92565b82525050565b6000602082019050610ad760008301846108db565b92915050565b60006020820190508181036000830152610af781846108ea565b905092915050565b60006020820190508181036000830152610b18816109d1565b9050919050565b60006020820190508181036000830152610b38816109f4565b9050919050565b60006020820190508181036000830152610b5881610a17565b9050919050565b6000606082019050610b746000830186610ab3565b8181036020830152610b868185610998565b90508181036040830152610b9a8184610998565b9050949350505050565b6000610bae610bbf565b9050610bba8282610d10565b919050565b6000604051905090565b600067ffffffffffffffff821115610be457610be3610d70565b5b610bed82610d9f565b9050602081019050919050565b6000819050602082019050919050565b600081519050919050565b600081519050919050565b6000602082019050919050565b600082825260208201905092915050565b600082825260208201905092915050565b600082825260208201905092915050565b6000610c6b82610c72565b9050919050565b600073ffffffffffffffffffffffffffffffffffffffff82169050919050565b6000819050919050565b82818337600083830152505050565b60005b83811015610cc9578082015181840152602081019050610cae565b83811115610cd8576000848401525b50505050565b60006002820490506001821680610cf657607f821691505b60208210811415610d0a57610d09610d41565b5b50919050565b610d1982610d9f565b810181811067ffffffffffffffff82111715610d3857610d37610d70565b5b80604052505050565b7f4e487b7100000000000000000000000000000000000000000000000000000000600052602260045260246000fd5b7f4e487b7100000000000000000000000000000000000000000000000000000000600052604160045260246000fd5b6000601f19601f8301169050919050565b7f4f776e61626c653a206e6577206f776e657220697320746865207a65726f206160008201527f6464726573730000000000000000000000000000000000000000000000000000602082015250565b7f63616e277420627579206120636f666665652077697468203020657468657200600082015250565b7f4f776e61626c653a2063616c6c6572206973206e6f7420746865206f776e6572600082015250565b610e5a81610c60565b8114610e6557600080fd5b5056fea2646970667358221220e821012f01b14f59cdd97797381acb8f07ef22eb72c7b0f5f75a211a27d644bb64736f6c63430008040033",
  "linkReferences": {},
  "deployedLinkReferences": {}
}